{
  "contractName": "EarlySupport",
  "abi": [
    {
      "anonymous": false,
      "inputs": [
        {
          "indexed": false,
          "internalType": "uint256",
          "name": "id",
          "type": "uint256"
        },
        {
          "indexed": false,
          "internalType": "address",
          "name": "creator",
          "type": "address"
        }
      ],
      "name": "ContentRegistered",
      "type": "event"
    },
    {
      "anonymous": false,
      "inputs": [
        {
          "indexed": false,
          "internalType": "uint256",
          "name": "id",
          "type": "uint256"
        },
        {
          "indexed": false,
          "internalType": "address",
          "name": "supporter",
          "type": "address"
        }
      ],
      "name": "Supported",
      "type": "event"
    },
    {
      "anonymous": false,
      "inputs": [
        {
          "indexed": false,
          "internalType": "uint256",
          "name": "id",
          "type": "uint256"
        }
      ],
      "name": "ViralTriggered",
      "type": "event"
    },
    {
      "inputs": [],
      "name": "MAX_SUPPORTERS",
      "outputs": [
        {
          "internalType": "uint256",
          "name": "",
          "type": "uint256"
        }
      ],
      "stateMutability": "view",
      "type": "function",
      "constant": true
    },
    {
      "inputs": [],
      "name": "SUPPORT_AMOUNT",
      "outputs": [
        {
          "internalType": "uint256",
          "name": "",
          "type": "uint256"
        }
      ],
      "stateMutability": "view",
      "type": "function",
      "constant": true
    },
    {
      "inputs": [],
      "name": "contentCount",
      "outputs": [
        {
          "internalType": "uint256",
          "name": "",
          "type": "uint256"
        }
      ],
      "stateMutability": "view",
      "type": "function",
      "constant": true
    },
    {
      "inputs": [
        {
          "internalType": "uint256",
          "name": "",
          "type": "uint256"
        }
      ],
      "name": "contents",
      "outputs": [
        {
          "internalType": "address",
          "name": "creator",
          "type": "address"
        },
        {
          "internalType": "string",
          "name": "title",
          "type": "string"
        },
        {
          "internalType": "string",
          "name": "descriptionHash",
          "type": "string"
        },
        {
          "internalType": "uint256",
          "name": "pool",
          "type": "uint256"
        },
        {
          "internalType": "bool",
          "name": "isViral",
          "type": "bool"
        }
      ],
      "stateMutability": "view",
      "type": "function",
      "constant": true
    },
    {
      "inputs": [
        {
          "internalType": "uint256",
          "name": "",
          "type": "uint256"
        },
        {
          "internalType": "address",
          "name": "",
          "type": "address"
        }
      ],
      "name": "hasSupported",
      "outputs": [
        {
          "internalType": "bool",
          "name": "",
          "type": "bool"
        }
      ],
      "stateMutability": "view",
      "type": "function",
      "constant": true
    },
    {
      "inputs": [
        {
          "internalType": "string",
          "name": "_title",
          "type": "string"
        },
        {
          "internalType": "string",
          "name": "_hash",
          "type": "string"
        }
      ],
      "name": "registerContent",
      "outputs": [],
      "stateMutability": "nonpayable",
      "type": "function"
    },
    {
      "inputs": [
        {
          "internalType": "uint256",
          "name": "_id",
          "type": "uint256"
        }
      ],
      "name": "support",
      "outputs": [],
      "stateMutability": "payable",
      "type": "function",
      "payable": true
    },
    {
      "inputs": [
        {
          "internalType": "uint256",
          "name": "_id",
          "type": "uint256"
        }
      ],
      "name": "markViral",
      "outputs": [],
      "stateMutability": "nonpayable",
      "type": "function"
    },
    {
      "inputs": [
        {
          "internalType": "uint256",
          "name": "_id",
          "type": "uint256"
        }
      ],
      "name": "getSupporters",
      "outputs": [
        {
          "internalType": "address[]",
          "name": "",
          "type": "address[]"
        }
      ],
      "stateMutability": "view",
      "type": "function",
      "constant": true
    },
    {
      "inputs": [
        {
          "internalType": "uint256",
          "name": "_id",
          "type": "uint256"
        }
      ],
      "name": "getPool",
      "outputs": [
        {
          "internalType": "uint256",
          "name": "",
          "type": "uint256"
        }
      ],
      "stateMutability": "view",
      "type": "function",
      "constant": true
    }
  ],
  "bytecode": "0x608060405234801561001057600080fd5b50611718806100206000396000f3fe6080604052600436106100915760003560e01c8063965870c011610059578063965870c014610180578063a2f9bae0146101a9578063b5ecf912146101e6578063cc45969614610227578063db536e591461025257610091565b8063068bcd8d146100965780634b95b046146100d35780634f63829c146100fe57806356c9493f1461013b578063641a083d14610157575b600080fd5b3480156100a257600080fd5b506100bd60048036038101906100b89190610b61565b61027d565b6040516100ca9190610b9d565b60405180910390f35b3480156100df57600080fd5b506100e861029c565b6040516100f59190610b9d565b60405180910390f35b34801561010a57600080fd5b5061012560048036038101906101209190610b61565b6102a7565b6040516101329190610ca8565b60405180910390f35b61015560048036038101906101509190610b61565b61034a565b005b34801561016357600080fd5b5061017e60048036038101906101799190610e10565b610608565b005b34801561018c57600080fd5b506101a760048036038101906101a29190610b61565b6106ff565b005b3480156101b557600080fd5b506101d060048036038101906101cb9190610eb4565b61096a565b6040516101dd9190610f0f565b60405180910390f35b3480156101f257600080fd5b5061020d60048036038101906102089190610b61565b610999565b60405161021e959493929190610fb8565b60405180910390f35b34801561023357600080fd5b5061023c610b0c565b6040516102499190610b9d565b60405180910390f35b34801561025e57600080fd5b50610267610b12565b6040516102749190610b9d565b60405180910390f35b6000806000838152602001908152602001600020600401549050919050565b662386f26fc1000081565b606060008083815260200190815260200160002060030180548060200260200160405190810160405280929190818152602001828054801561033e57602002820191906000526020600020905b8160009054906101000a900473ffffffffffffffffffffffffffffffffffffffff1673ffffffffffffffffffffffffffffffffffffffff16815260200190600101908083116102f4575b50505050509050919050565b662386f26fc100003414610393576040517f08c379a000000000000000000000000000000000000000000000000000000000815260040161038a90611065565b60405180910390fd5b600080600083815260200190815260200160002090508060050160009054906101000a900460ff16156103fb576040517f08c379a00000000000000000000000000000000000000000000000000000000081526004016103f2906110d1565b60405180910390fd5b6014816003018054905010610445576040517f08c379a000000000000000000000000000000000000000000000000000000000815260040161043c9061113d565b60405180910390fd5b6001600083815260200190815260200160002060003373ffffffffffffffffffffffffffffffffffffffff1673ffffffffffffffffffffffffffffffffffffffff16815260200190815260200160002060009054906101000a900460ff16156104e3576040517f08c379a00000000000000000000000000000000000000000000000000000000081526004016104da906111a9565b60405180910390fd5b80600301339080600181540180825580915050600190039060005260206000200160009091909190916101000a81548173ffffffffffffffffffffffffffffffffffffffff021916908373ffffffffffffffffffffffffffffffffffffffff160217905550600180600084815260200190815260200160002060003373ffffffffffffffffffffffffffffffffffffffff1673ffffffffffffffffffffffffffffffffffffffff16815260200190815260200160002060006101000a81548160ff021916908315150217905550348160040160008282546105c491906111f8565b925050819055507fb8e9ea76cc3e4b05a75779d876ae812a6374275c2b0ce54f3bec4f815264680482336040516105fc92919061122c565b60405180910390a15050565b6002600081548092919061061b90611255565b919050555033600080600254815260200190815260200160002060000160006101000a81548173ffffffffffffffffffffffffffffffffffffffff021916908373ffffffffffffffffffffffffffffffffffffffff160217905550816000806002548152602001908152602001600020600101908161069a91906114a9565b5080600080600254815260200190815260200160002060020190816106bf91906114a9565b507f6b73506f7e22fcec8483466d36a7a8bdc939df70318159b0d2543dc3fee38b48600254336040516106f392919061122c565b60405180910390a15050565b600080600083815260200190815260200160002090508060000160009054906101000a900473ffffffffffffffffffffffffffffffffffffffff1673ffffffffffffffffffffffffffffffffffffffff163373ffffffffffffffffffffffffffffffffffffffff16146107a7576040517f08c379a000000000000000000000000000000000000000000000000000000000815260040161079e906115c7565b60405180910390fd5b8060050160009054906101000a900460ff16156107f9576040517f08c379a00000000000000000000000000000000000000000000000000000000081526004016107f0906110d1565b60405180910390fd5b6000816003018054905011610843576040517f08c379a000000000000000000000000000000000000000000000000000000000815260040161083a90611633565b60405180910390fd5b60018160050160006101000a81548160ff0219169083151502179055506000816003018054905082600401546108799190611682565b905060005b826003018054905081101561092d5760008360030182815481106108a5576108a46116b3565b5b9060005260206000200160009054906101000a900473ffffffffffffffffffffffffffffffffffffffff1690508073ffffffffffffffffffffffffffffffffffffffff166108fc849081150290604051600060405180830381858888f19350505050158015610918573d6000803e3d6000fd5b5050808061092590611255565b91505061087e565b507f0bd7f853e74330b2f940e7567c7515333dc97321fe1685d45c5e49e6b04ef5508360405161095d9190610b9d565b60405180910390a1505050565b60016020528160005260406000206020528060005260406000206000915091509054906101000a900460ff1681565b60006020528060005260406000206000915090508060000160009054906101000a900473ffffffffffffffffffffffffffffffffffffffff16908060010180546109e2906112cc565b80601f0160208091040260200160405190810160405280929190818152602001828054610a0e906112cc565b8015610a5b5780601f10610a3057610100808354040283529160200191610a5b565b820191906000526020600020905b815481529060010190602001808311610a3e57829003601f168201915b505050505090806002018054610a70906112cc565b80601f0160208091040260200160405190810160405280929190818152602001828054610a9c906112cc565b8015610ae95780601f10610abe57610100808354040283529160200191610ae9565b820191906000526020600020905b815481529060010190602001808311610acc57829003601f168201915b5050505050908060040154908060050160009054906101000a900460ff16905085565b60025481565b601481565b6000604051905090565b600080fd5b600080fd5b6000819050919050565b610b3e81610b2b565b8114610b4957600080fd5b50565b600081359050610b5b81610b35565b92915050565b600060208284031215610b7757610b76610b21565b5b6000610b8584828501610b4c565b91505092915050565b610b9781610b2b565b82525050565b6000602082019050610bb26000830184610b8e565b92915050565b600081519050919050565b600082825260208201905092915050565b6000819050602082019050919050565b600073ffffffffffffffffffffffffffffffffffffffff82169050919050565b6000610c0f82610be4565b9050919050565b610c1f81610c04565b82525050565b6000610c318383610c16565b60208301905092915050565b6000602082019050919050565b6000610c5582610bb8565b610c5f8185610bc3565b9350610c6a83610bd4565b8060005b83811015610c9b578151610c828882610c25565b9750610c8d83610c3d565b925050600181019050610c6e565b5085935050505092915050565b60006020820190508181036000830152610cc28184610c4a565b905092915050565b600080fd5b600080fd5b6000601f19601f8301169050919050565b7f4e487b7100000000000000000000000000000000000000000000000000000000600052604160045260246000fd5b610d1d82610cd4565b810181811067ffffffffffffffff82111715610d3c57610d3b610ce5565b5b80604052505050565b6000610d4f610b17565b9050610d5b8282610d14565b919050565b600067ffffffffffffffff821115610d7b57610d7a610ce5565b5b610d8482610cd4565b9050602081019050919050565b82818337600083830152505050565b6000610db3610dae84610d60565b610d45565b905082815260208101848484011115610dcf57610dce610ccf565b5b610dda848285610d91565b509392505050565b600082601f830112610df757610df6610cca565b5b8135610e07848260208601610da0565b91505092915050565b60008060408385031215610e2757610e26610b21565b5b600083013567ffffffffffffffff811115610e4557610e44610b26565b5b610e5185828601610de2565b925050602083013567ffffffffffffffff811115610e7257610e71610b26565b5b610e7e85828601610de2565b9150509250929050565b610e9181610c04565b8114610e9c57600080fd5b50565b600081359050610eae81610e88565b92915050565b60008060408385031215610ecb57610eca610b21565b5b6000610ed985828601610b4c565b9250506020610eea85828601610e9f565b9150509250929050565b60008115159050919050565b610f0981610ef4565b82525050565b6000602082019050610f246000830184610f00565b92915050565b610f3381610c04565b82525050565b600081519050919050565b600082825260208201905092915050565b60005b83811015610f73578082015181840152602081019050610f58565b60008484015250505050565b6000610f8a82610f39565b610f948185610f44565b9350610fa4818560208601610f55565b610fad81610cd4565b840191505092915050565b600060a082019050610fcd6000830188610f2a565b8181036020830152610fdf8187610f7f565b90508181036040830152610ff38186610f7f565b90506110026060830185610b8e565b61100f6080830184610f00565b9695505050505050565b7f53656e6420657861637420455448000000000000000000000000000000000000600082015250565b600061104f600e83610f44565b915061105a82611019565b602082019050919050565b6000602082019050818103600083015261107e81611042565b9050919050565b7f416c726561647920766972616c00000000000000000000000000000000000000600082015250565b60006110bb600d83610f44565b91506110c682611085565b602082019050919050565b600060208201905081810360008301526110ea816110ae565b9050919050565b7f4d617820737570706f7274657273207265616368656400000000000000000000600082015250565b6000611127601683610f44565b9150611132826110f1565b602082019050919050565b600060208201905081810360008301526111568161111a565b9050919050565b7f416c726561647920737570706f72746564000000000000000000000000000000600082015250565b6000611193601183610f44565b915061119e8261115d565b602082019050919050565b600060208201905081810360008301526111c281611186565b9050919050565b7f4e487b7100000000000000000000000000000000000000000000000000000000600052601160045260246000fd5b600061120382610b2b565b915061120e83610b2b565b9250828201905080821115611226576112256111c9565b5b92915050565b60006040820190506112416000830185610b8e565b61124e6020830184610f2a565b9392505050565b600061126082610b2b565b91507fffffffffffffffffffffffffffffffffffffffffffffffffffffffffffffffff8203611292576112916111c9565b5b600182019050919050565b7f4e487b7100000000000000000000000000000000000000000000000000000000600052602260045260246000fd5b600060028204905060018216806112e457607f821691505b6020821081036112f7576112f661129d565b5b50919050565b60008190508160005260206000209050919050565b60006020601f8301049050919050565b600082821b905092915050565b60006008830261135f7fffffffffffffffffffffffffffffffffffffffffffffffffffffffffffffffff82611322565b6113698683611322565b95508019841693508086168417925050509392505050565b6000819050919050565b60006113a66113a161139c84610b2b565b611381565b610b2b565b9050919050565b6000819050919050565b6113c08361138b565b6113d46113cc826113ad565b84845461132f565b825550505050565b600090565b6113e96113dc565b6113f48184846113b7565b505050565b5b818110156114185761140d6000826113e1565b6001810190506113fa565b5050565b601f82111561145d5761142e816112fd565b61143784611312565b81016020851015611446578190505b61145a61145285611312565b8301826113f9565b50505b505050565b600082821c905092915050565b600061148060001984600802611462565b1980831691505092915050565b6000611499838361146f565b9150826002028217905092915050565b6114b282610f39565b67ffffffffffffffff8111156114cb576114ca610ce5565b5b6114d582546112cc565b6114e082828561141c565b600060209050601f8311600181146115135760008415611501578287015190505b61150b858261148d565b865550611573565b601f198416611521866112fd565b60005b8281101561154957848901518255600182019150602085019450602081019050611524565b868310156115665784890151611562601f89168261146f565b8355505b6001600288020188555050505b505050505050565b7f4f6e6c792063726561746f720000000000000000000000000000000000000000600082015250565b60006115b1600c83610f44565b91506115bc8261157b565b602082019050919050565b600060208201905081810360008301526115e0816115a4565b9050919050565b7f4e6f20737570706f727465727300000000000000000000000000000000000000600082015250565b600061161d600d83610f44565b9150611628826115e7565b602082019050919050565b6000602082019050818103600083015261164c81611610565b9050919050565b7f4e487b7100000000000000000000000000000000000000000000000000000000600052601260045260246000fd5b600061168d82610b2b565b915061169883610b2b565b9250826116a8576116a7611653565b5b828204905092915050565b7f4e487b7100000000000000000000000000000000000000000000000000000000600052603260045260246000fdfea2646970667358221220a0548abb12e6a9169ea8c5b7a15f1bf1464bfd760f51d6a5230c681a04e53aba64736f6c63430008130033",
  "immutableReferences": {},
  "source": "// SPDX-License-Identifier: MIT\r\npragma solidity ^0.8.19;\r\n\r\ncontract EarlySupport {\r\n\r\n    uint256 public constant SUPPORT_AMOUNT = 1e16; // 0.01 ETH\r\n    uint256 public constant MAX_SUPPORTERS = 20;\r\n\r\n    struct Content {\r\n        address creator;\r\n        string title;\r\n        string descriptionHash;\r\n        address[] supporters;\r\n        uint256 pool;\r\n        bool isViral;\r\n    }\r\n\r\n    mapping(uint256 => Content) public contents;\r\n    mapping(uint256 => mapping(address => bool)) public hasSupported;\r\n\r\n    uint256 public contentCount;\r\n\r\n    event ContentRegistered(uint256 id, address creator);\r\n    event Supported(uint256 id, address supporter);\r\n    event ViralTriggered(uint256 id);\r\n\r\n    function registerContent(string memory _title, string memory _hash) public {\r\n        contentCount++;\r\n\r\n        contents[contentCount].creator = msg.sender;\r\n        contents[contentCount].title = _title;\r\n        contents[contentCount].descriptionHash = _hash;\r\n\r\n        emit ContentRegistered(contentCount, msg.sender);\r\n    }\r\n\r\n    function support(uint256 _id) public payable {\r\n        require(msg.value == SUPPORT_AMOUNT, \"Send exact ETH\");\r\n\r\n        Content storage c = contents[_id];\r\n\r\n        require(!c.isViral, \"Already viral\");\r\n        require(c.supporters.length < MAX_SUPPORTERS, \"Max supporters reached\");\r\n        require(!hasSupported[_id][msg.sender], \"Already supported\");\r\n\r\n        c.supporters.push(msg.sender);\r\n        hasSupported[_id][msg.sender] = true;\r\n        c.pool += msg.value;\r\n\r\n        emit Supported(_id, msg.sender);\r\n    }\r\n\r\n    function markViral(uint256 _id) public {\r\n        Content storage c = contents[_id];\r\n\r\n        require(msg.sender == c.creator, \"Only creator\");\r\n        require(!c.isViral, \"Already viral\");\r\n        require(c.supporters.length > 0, \"No supporters\");\r\n\r\n        c.isViral = true;\r\n\r\n        uint256 reward = c.pool / c.supporters.length;\r\n\r\n        for (uint256 i = 0; i < c.supporters.length; i++) {\r\n            address payable user = payable(c.supporters[i]);\r\n            user.transfer(reward);\r\n        }\r\n\r\n        emit ViralTriggered(_id);\r\n    }\r\n\r\n    function getSupporters(uint256 _id) public view returns (address[] memory) {\r\n        return contents[_id].supporters;\r\n    }\r\n\r\n    function getPool(uint256 _id) public view returns (uint256) {\r\n        return contents[_id].pool;\r\n    }\r\n}",
  "sourcePath": "C:\\Users\\Rayhaan\\OneDrive\\Documents\\BlockChain\\early-support-dapp\\contracts\\EarlySupport.sol",
  "compiler": {
    "name": "solc",
    "version": "0.8.19+commit.7dd6d404.Emscripten.clang"
  },
  "schemaVersion": "3.4.16",
  "updatedAt": "2026-04-15T16:38:43.771Z",
  "networkType": "ethereum",
  "devdoc": {
    "kind": "dev",
    "methods": {},
    "version": 1
  },
  "userdoc": {
    "kind": "user",
    "methods": {},
    "version": 1
  }
}